:020000040000FA
:04000000FEEF17F008
:10138C00C58AC5881200C586E5EC09F01200C58235
:10139C00E5EC09F01200C580E5EC09F01200C584FB
:1013AC00E5EC09F01200C9EC09F0C6EC09F0C950E3
:1013BC001200016E01C0C9FFE5EC09F012009EA6F7
:1013CC00EAEF09F0ECEF09F0E5EF09F09E96120058
:1013DC000F0EC16E1E0E936EF19E8150E009816E50
:1013EC00120094869488280EC66E310EC86EC79C67
:1013FC00C78E9E96A19612000A6E000E016E0950C1
:10140C0086EC0AF0010E016E0A5086EC0AF012000E
:10141C00016E9EA814EF0AF016EF0AF00FEF0AF017
:10142C009E9801C0ADFF1200096ED1EC09F0D00EF0
:10143C00DFEC09F00950DFEC09F00850DFEC09F0A3
:10144C00D5EC09F01200948E949CAC9CAC8AAC98B0
:10145C00AC96AC84AB8EAB9CAB88B896810EAF6E61
:10146C009E989E9A120049EC0AF046EC0DF0EEECB8
:10147C0009F049EC0AF0F7EC09F0A3EC0AF029ECBE
:10148C000AF0576A1200C29AC288C296C294C280ED
:10149C00C19AC198C186C194C182C190C09EC094AA
:1014AC00C082C090C08AC098C0961200026ED1EC67
:1014BC0009F0A00EDFEC09F00250DFEC09F0CDECE6
:1014CC0009F0A10EDFEC09F0D9EC09F0036ED5ECB4
:1014DC0009F003501200026ED1EC09F0D00EDFECD3
:1014EC0009F00250DFEC09F0CDEC09F0D10EDFEC85
:1014FC0009F0D9EC09F0036ED5EC09F00350120099
:10150C00026E01B08CEF0AF08FEF0AF0828290EF3E
:10151C000AF0829202C083FF82848294958E82802C
:10152C0082928284829483BE9EEF0AF0A0EF0AF02E
:10153C0097EF0AF08290959E1200000E71EC0AF063
:10154C000A6E0A508009086E000E1AEC0AF0020EA0
:10155C0071EC0AF00A6E0A504009086E020E1AEC81
:10156C000AF0000E71EC0AF00A6E0A507F0B086E3E
:10157C00000E1AEC0AF012000C6ED1EC09F0A00E61
:10158C00DFEC09F00C50DFEC09F00950DFEC09F04E
:10159C00D5EC09F00B0E0B6EB80E0A6E0A06D8A02D
:1015AC000B060A2806E10B28D8A4DFEF0AF0E1EFBE
:1015BC000AF0D4EF0AF01200C282C2B2E8EF0AF0CD
:1015CC00EAEF0AF0E3EF0AF0C3CF03F0060E046E65
:1015DC00D8900332042EEEEF0AF00350C4CF05F07E
:1015EC00066AD89005360636D890053606360510AC
:1015FC00016E0650026E1200536AB90E036E2F0E66
:10160C00046E800E056E17EC0CF0AC0E036E2F0EF4
:10161C00046EC30E056E17EC0CF01A0E076E5E0E00
:10162C00066E6E0EE82EFED7062EFCD7072EFAD7C6
:10163C0000D04E6A000E016E010E86EC0AF0506A64
:08164C004F6A010E576E1200F7
:1016550056696577204C6F672020202020202000C8
:10166500446F776E6C6F6164204C6F67202020009B
:10167500436C656172204C6F67202020202020007C
:101685005365742054696D652020202020200000BA
:101695004F4E00474E004731004732004733004761
:1016A5003400473500475200435F00020E71EC0AD3
:1016B500F03B6E010E71EC0AF03C6E000E71EC0A07
:1016C500F03D6E3B380F0B030B300F0001BB6F3B3A
:1016D500500F0B300FBC6F3A0EBD6F3C380F0B0728
:1016E5000B300FBE6F3C500F0B300FBF6F3A0EC063
:1016F5006F3D380F0B070B300FC16F3D500F0B308F
:101705000FC26FC36B12009CEF0BF002C0F6FF0314
:10171500C0F7FFF86A050EF76403D00800F5500519
:10172500D0F6CFE9FFF7CFEAFFEF500EEC0AF00253
:101735004A032A02C0F6FF03C0F7FFF86A050EF751
:101745006403D00800F55005D0F6CFE9FFF7CFEADE
:10175500FFEF500009D8A4B2EF0BF0B4EF0BF088FF
:10176500EF0BF01200550EF66E160EF76E000EF822
:101775006E00EE60F010EE5BF00900F5CFEEFFE5D0
:1017850050E150FAE1000EF66E300EF76E000EF8DD
:101795006E0900F5CF58F001EE00F0960EEE6AE8FE
:1017A50006FDE100EEBBF0090EEE6AE806FDE1007C
:1017B500EE3BF01D0EEE6AE806FDE1000EF86E0048
:1017C50001FFEF0CF003500410D8B4ECEF0BF0EE72
:1017D500EF0BF012EF0CF0010E056EF6EF0BF0D8E3
:1017E5009003360436052A04AEFBEF0BF0FDEF0B34
:1017F500F0F2EF0BF00350015C04500258D8A0063C
:10180500EF0CF008EF0CF00CEF0CF00350015E0448
:1018150050025AD89004320332052EFDEF0BF00129
:10182500C001F002C002F01200000E016E055086E4
:10183500EC0AF034EF0CF0010E016E03C0F6FF0464
:10184500C0F7FFF86A050EF76403D00800F55005E8
:10185500D0F6CFE9FFF7CFEAFFEF5086EC0AF003A9
:101865004A042A03C0F6FF04C0F7FFF86A050EF71D
:101875006403D00800F55005D0F6CFE9FFF7CFEAAD
:10188500FFEF500009D8A44AEF0CF04CEF0CF01E06
:10189500EF0CF01200016E0104D8A454EF0CF056C1
:1018A500EF0CF079EF0CF0C1EC0CF0516E5128D82B
:1018B500B45FEF0CF061EF0CF06DEF0CF05850D801
:1018C500B467EF0CF069EF0CF06DEF0CF0586A514E
:1018D5005086EF0CF05128D8A473EF0CF075EF0C7F
:1018E500F085EF0CF0010E586E85EF0CF00150D825
:1018F500A47FEF0CF081EF0CF085EF0CF0C1EC0C40
:10190500F086EF0CF0FF0E1200000E066E000E05BD
:101915006E03500410D8B492EF0CF094EF0CF0BCA9
:10192500EF0CF0010E076E9CEF0CF0D89003360417
:1019350036072A04AEA1EF0CF0A3EF0CF098EF0CDC
:10194500F0D890053606360350015C04500258D88D
:10195500A0AFEF0CF0B1EF0CF0B6EF0CF0035001B7
:101965005E0450025A0580D89004320332072EA334
:10197500EF0CF005C001F006C002F01200819A815B
:101985008C818E81B2C9EF0CF0CBEF0CF0CEEF0C51
:10199500F0010EFEEF0CF0818A819C818E81B2D61A
:1019A500EF0CF0D8EF0CF0DBEF0CF0020EFEEF0CB5
:1019B500F081B8E0EF0CF0E2EF0CF0E5EF0CF00B86
:1019C5000EFEEF0CF0818A818C819E819E81B2EEA4
:1019D500EF0CF0F0EF0CF0F3EF0CF0030EFEEF0C54
:1019E500F081B8F8EF0CF0FAEF0CF0FDEF0CF00C0D
:1019F5000EFEEF0CF0FF0E120039EC0AF0010E4D51
:101A0500EC0CF0556E1FEF0DF0A7EC12F001EF0D89
:101A1500F0F7EC10F001EF0DF047EC10F001EF0DD1
:101A2500F051EC0EF001EF0DF002EC0BF001EF0DB3
:101A3500F04EEC15F001EF0DF05750396E3A6A3A59
:101A450050000AD8B429EF0DF001EF0DF039500020
:101A55000AD8B407EF0DF0010AD8B40BEF0DF00367
:101A65000AD8B40FEF0DF0010AD8B413EF0DF00743
:101A75000AD8B417EF0DF0010AD8B41BEF0DF00129
:101A8500EF0DF0FEEF17F0956A9450F80B946E8207
:101A950090C30E036ECD0EE82EFED7032EFCD700A5
:101AA50000000E016E330E86EC0AF01B0E036E9ECF
:101AB5000EE82EFED7032EFCD700D0000E016E33A4
:101AC5000E86EC0AF0A60EE82EFED700D0000E0119
:101AD5006E330E86EC0AF000D000D00000000E0137
:101AE5006E020E86EC0AF0A60EE82EFED700D00098
:101AF5000E016E380E86EC0AF0A60EE82EFED70013
:101B0500D0000E016E010E86EC0AF0040E036E3E47
:101B15000EE82EFED7032EFCD7000E016E0C0E86A6
:101B2500EC0AF0A60EE82EFED700D01200066A02D7
:101B3500BEA1EF0DF09FEF0DF0A7EF0DF0016C02C8
:101B45001ED8B0022A010E066E04BEAEEF0DF0AC33
:101B5500EF0DF0B2EF0DF0036C041ED8B0042A03AC
:101B6500500410D8B4B9EF0DF0BBEF0DF0DFEF0D59
:101B7500F0010E056EC3EF0DF0D89003360436055F
:101B85002A04AEC8EF0DF0CAEF0DF0BFEF0DF0035C
:101B950050015C04500258D8A0D3EF0DF0D5EF0DDD
:101BA500F0D9EF0DF00350015E0450025AD89004AD
:101BB500320332052ECAEF0DF00650D8B4E5EF0D0D
:101BC500F0E7EF0DF0EBEF0DF0016C021ED8B0025F
:101BD5002A01C001F002C002F01200066A04BEF834
:101BE500EF0DF0F6EF0DF0FEEF0DF0036C041ED8CF
:101BF500B0042A010E066E02BE05EF0EF003EF0ECD
:101C0500F00BEF0EF0016C021ED8B0022A010E0691
:101C15001A000E086E000E076E03500410D8B41695
:101C2500EF0EF018EF0EF040EF0EF0010E056E20EE
:101C3500EF0EF0D89003360436052A04AE25EF0ED4
:101C4500F027EF0EF01CEF0EF0D89007360836039C
:101C550050015C04500258D8A033EF0EF035EF0E5A
:101C6500F03AEF0EF00350015E0450025A0780D897
:101C75009004320332052E27EF0EF00650D8B446F5
:101C8500EF0EF048EF0EF04CEF0EF0076C081ED883
:101C9500B0082A07C001F008C002F01200B6EC0F28
:101CA500F05350D8B459EF0EF05BEF0EF09AEF0EEB
:101CB500F0000E096E000E086E7AEF0EF00F0E089A
:101CC50002F3CF06F0F4CF07F00902F35007260020
:101CD5000E0624026E010E0720036E86EC0BF0F84B
:101CE5000E026E2F0E036E86EC0BF0084A092A537E
:101CF50050066E076A0650085C07500958D8A0863A
:101D0500EF0EF088EF0EF061EF0EF09D0E036E2FD3
:101D15000E046E800E056E17EC0CF0AC0E036E2FE4
:101D25000E046EC30E056E17EC0CF0A2EF0EF070EC
:101D35000E036E2F0E046E800E056E17EC0CF0155B
:101D45000E076E4B0E066EBE0EE82EFED7062EFC57
:101D5500D7072EFAD700D04E6A000E016E010E8607
:101D6500EC0AF0506A4F6A010E576E1200640E526B
:101D750018D8A4C0EF0EF0C2EF0EF0C3EF0EF0526C
:101D85006A000E106E000E0F6E020E0F181010D89E
:101D9500B4CFEF0EF0D1EF0EF0E7EF0EF0050E0F1A
:101DA500181010D8A4D9EF0EF0DBEF0EF0DDEF0E12
:101DB500F0E7EF0EF00F50BB0FD96EDA6ADF50096E
:101DC5006E5250C2EC0AF0522A0F4A102A105009DE
:101DD500E1080E0F5CD8A0F2EF0EF0F4EF0EF0C79D
:101DE500EF0EF0000E0E6E000E0D6E5450030DF347
:101DF50050A00F0D24D96EDA6ADF50096E5250C219
:101E0500EC0AF0522A0D4A0E2A0E5009E1020E0D77
:101E15005CD8A010EF0FF012EF0FF0F8EF0EF056B0
:101E2500C001F0026A000E046E0A0E036EF0EC0D9E
:101E3500F00150300F096E5250C2EC0AF0522A568A
:101E4500C001F0026A000E046E0A0E036E99EC0DD5
:101E5500F00150300F096E5250C2EC0AF0522A12AE
:101E65000030343134376E3750D8A43CEF0FF03E94
:101E7500EF0FF048EF0FF0000E2E6E000E2F6E00E4
:101E85000E306E000E316EB5EF0FF02EC032F02F12
:101E9500C033F030C034F031C035F0200E58EF0FAC
:101EA500F0D8903532343233323232E82E53EF0FD8
:101EB500F03250366E308EFF0E2E16FF0E2F16FFA7
:101EC5000E3016000E3116960E375E37BE6FEF0FC9
:101ED500F06DEF0FF085EF0FF03750800A970FD8B0
:101EE500B077EF0FF079EF0FF07BEF0FF03EEF0FCC
:101EF500F0D890313230322F322E32373E7BEF0F11
:101F0500F09DEF0FF01F0E37648BEF0FF08DEF0F85
:101F1500F095EF0FF03EEF0FF0D8902E362F3630BC
:101F250036313637063750D8A49BEF0FF09DEF0FAB
:101F3500F08FEF0FF03650D8B4A3EF0FF0A5EF0FE9
:101F4500F0ADEF0FF0311E301E2F1E2E6C000E2F40
:101F550022302231222EC02EF02FC02FF030C0307B
:101F6500F031C031F012004C6A3CEF10F04B6A0DB5
:101F75000E4B64C0EF0FF0C2EF0FF0C4EF0FF0226D
:101F8500EF10F0020E4B18D8B4CBEF0FF0CDEF0FDA
:101F9500F0D6EF0FF0050E4B18D8A4D4EF0FF0D6FE
:101FA500EF0FF0E8EF0FF04C500F0D000EF3240487
:101FB5006E010EF420056E4B500424D96E000E05FB
:101FC50020DA6E3A0EDF6E1FEF10F0080E4B18D8B0
:101FD500B4EFEF0FF0F1EF0FF0FAEF0FF00B0E4B40
:101FE50018D8A4F8EF0FF0FAEF0FF00CEF10F04C43
:101FF500500F0D000EF324046E010EF420056E4BF8
:10200500500424D96E000E0520DA6E200EDF6E1FF7
:10201500EF10F04C500F0D000EF324046E010EF47A
:1020250020056E4B500424D96E000E0520DA6E4D46
:10203500505CEC0AF0DF6E4D2A4B2ABAEF0FF064C4
:102045000E4D18D8A429EF10F02BEF10F02CEF103F
:10205500F04D6A4C500F0D000EF324046E010EF482
:1020650020056E4B500424D96E000E0520DA6EDF74
:102075006A4C2A53504C5CD8A043EF10F045EF1042
:10208500F0B9EF0FF04D6A1200B6EC0FF05350D8CF
:10209500A44FEF10F051EF10F076EF10F0E50E03BE
:1020A5006E2F0E046E800E056E17EC0CF0DB0E0322
:1020B5006E2F0E046EC70E056E17EC0CF01A0E0C83
:1020C5006E5E0E0B6E6E0EE82EFED70B2EFCD70C39
:1020D5002EFAD700D0000E016E010E86EC0AF00133
:1020E5000E576EF6EF10F08E0E036E2F0E046E82F5
:1020F5000E056E17EC0CF0020E5518D8A485EF10DE
:10210500F087EF10F0B0EF10F0090E4A18D8B48E32
:10211500EF10F090EF10F0C1EF10F0FF0E53240B0D
:102125006E0C6AFF0E0C224A500D6E0E6A0B500D96
:102135005C0E50800A0F6E0C50800A0F58D8B0A65E
:10214500EF10F0A8EF10F0C1EF10F0000E016E01D6
:102155000E86EC0AF04A2AC1EF10F05504D8A4B651
:10216500EF10F0B8EF10F0C1EF10F04A50D8B4BE40
:10217500EF10F0C0EF10F0C1EF10F04A0653504ACF
:102185005CD8B0C8EF10F0CAEF10F0E1EF10F0C066
:102195000E096E4A50300F02EC0AF0C10E096E208E
:1021A5000E02EC0AF04A500F0D000EF324036E01E7
:1021B5000EF420046EC20E056E17EC0CF00C0E55D5
:1021C50018D8A4E8EF10F0EAEF10F0F6EF10F000E1
:1021D5000E016E010E86EC0AF0506A4F6A4C6A4B8E
:1021E5006A4A6A72EF10F01200030E5060FDEF109C
:1021F500F0FFEF10F019EF11F05050100DF3506093
:102205000F0B6E0BC003F0046A830E056E17EC0C02
:10221500F05050100DF350700F0B6E0BC003F0040F
:102225006AC30E056E17EC0CF031EF11F05050102B
:102235000DF350500F0B6E0BC003F0046A830E05AF
:102245006E17EC0CF05050100DF350600F0B6E0B29
:10225500C003F0046AC30E056E17EC0CF04F50D89E
:10226500A437EF11F039EF11F045EF11F0800E09A9
:102275006E2A0E02EC0AF0C00E096E200E02EC0A60
:10228500F04FEF11F0800E096E200E02EC0AF0C03F
:102295000E096E2A0E02EC0AF0020E5518D8A45645
:1022A500EF11F058EF11F07BEF11F0000E016E0108
:1022B5000E86EC0AF0030E4E6063EF11F065EF1128
:1022C500F066EF11F04E2A030E50606CEF11F06EC0
:1022D500EF11F077EF11F04F04D8A474EF11F076F9
:1022E500EF11F077EF11F0502A010E4F6ECCEF1180
:1022F500F05504D8A481EF11F083EF11F0A5EF118B
:10230500F0000E016E010E86EC0AF04E50D8B48E28
:10231500EF11F090EF11F091EF11F04E065050D8FB
:10232500B497EF11F099EF11F0A2EF11F04F50D8DB
:10233500A49FEF11F0A1EF11F0A2EF11F050064F9D
:102345006ACCEF11F00B0E5518D8A4ACEF11F0AE16
:10235500EF11F0B8EF11F0000E016E010E86EC0AD8
:10236500F04E50020F576ECCEF11F00C0E5518D8E9
:10237500A4BFEF11F0C1EF11F0CCEF11F0000E0189
:102385006E010E86EC0AF0506A4E6A4F6A576ACCA7
:10239500EF11F012000F6E0F50D8B4D4EF11F0D634
:1023A500EF11F0F8EF11F00ABEDDEF11F0DBEF11E0
:1023B500F0F8EF11F007C00BF008C00CF009C00DE4
:1023C500F00AC00EF00B1E0C1E0D1E0E1E0B2A0071
:1023D5000E0C220D220E220BC011F00CC012F00DB6
:1023E500C013F00EC014F000EF12F007C011F00892
:1023F500C012F009C013F00AC014F0075008100904
:10240500100A10D8A409EF12F00BEF12F015EF1215
:10241500F0000E076E000E086E000E096E000E0A23
:102425006EA6EF12F0960E106E1FEF12F0102AD85E
:10243500901432133212321132000E11140B6E0049
:102445000E12140C6E000E13140D6EFE0E14140EE7
:102455006E0B500C100D100E10D8A434EF12F03680
:10246500EF12F019EF12F044EF12F0102A010E11DD
:1024750026000E122213221422D89014321332127F
:10248500321132000E11140B6E000E12140C6E0078
:102495000E13140D6EFF0E14140E6E0B500C100D52
:1024A500100E10D8A459EF12F05BEF12F038EF12AE
:1024B500F063EF12F01006D8901136123613361469
:1024C5003613BE68EF12F06AEF12F072EF12F002E7
:1024D5000E106070EF12F072EF12F05DEF12F01057
:1024E500B077EF12F079EF12F07AEF12F0139ED871
:1024F50090103210C00BF00C6A0D6A0E6A0BC00EFC
:10250500F00D6A0C6A0B6A0B5011120C5012120D69
:102515005013120E5014120F50D8B494EF12F096B7
:10252500EF12F09EEF12F00ABE9DEF12F09BEF1234
:10253500F09EEF12F0148E11C007F012C008F013D0
:10254500C009F014C00AF0120058EC0BF0BB0E03E2
:102555006E046AC00E056E17EC0CF05F0E036E2F4D
:102565000E046E800E056E17EC0CF05450030DF33F
:1025750050A00F386E38C003F0046AC90E056E17F7
:10258500EC0CF0030E5518D8A4CBEF12F0CDEF12DA
:10259500F0E0EF12F0080E546E5450030DF350A006
:1025A5000F386E38C003F0046AC90E056E17EC0CBF
:1025B500F0532AB9EC0EF00FEF13F05504D8A4E64A
:1025C500EF12F0E8EF12F0F3EF12F0070E5460EEA1
:1025D500EF12F0F0EF12F0DBEF12F0542ACFEF120A
:1025E500F0020E5518D8A4FAEF12F0FCEF12F00F16
:1025F500EF13F0080E546002EF13F004EF13F0DB55
:10260500EF12F0010E54640AEF13F00CEF13F0DB38
:10261500EF12F05406CFEF12F0080E5418D8A41696
:10262500EF13F018EF13F02EEF13F05504D8B41E86
:10263500EF13F020EF13F029EF13F0020E5518D821
:10264500A427EF13F029EF13F02EEF13F0010E542A
:102655006E532AB9EC0EF00B0E5518D8A435EF13AE
:10266500F037EF13F03EEF13F0000E016E010E860A
:10267500EC0AF0010E576EAE0E196E470E1A6E2556
:102685000E1B6E410E1C6EE2EC0AF001C007F00253
:10269500C008F0096A0A6A000ECDEC11F007C015F2
:1026A500F008C016F009C017F00AC018F086EC1340
:1026B500F015C02EF016C02FF017C030F018C0313D
:1026C500F033EC0FF02E50566ECD0E096E56C0014C
:1026D500F0026A000E046E0A0E036EF0EC0DF001B6
:1026E50050300F02EC0AF0CE0E096E56C001F00212
:1026F5006A000E046E0A0E036E99EC0DF00150305F
:102705000F02EC0AF012001850800B256E185018B5
:10271500242C6E17AE91EF13F093EF13F094EF1393
:10272500F02C802C50D8B49AEF13F09CEF13F0B036
:10273500EF13F02C28D8A4A2EF13F0A4EF13F0ACFC
:10274500EF13F0000E156E000E166E000E176E00DC
:102755000E186E178E186AB8EF13F0000E156E007E
:102765000E166E000E176E000E186E1C50800B258F
:102775001A1C501C242D6E1BAEC3EF13F0C5EF13AE
:10278500F0C6EF13F02D802D50D8B4CCEF13F0CE5A
:10279500EF13F0E2EF13F02D28D8A4D4EF13F0D601
:1027A500EF13F0DEEF13F0000E196E000E1A6E0037
:1027B5000E1B6E000E1C6E1B8E1C6AEAEF13F000DA
:1027C5000E196E000E1A6E000E1B6E000E1C6E1991
:1027D500501A101B101C10D8A4F3EF13F0F5EF13CB
:1027E500F00DEF14F0000E156E000E166E000E17AC
:1027F5006E000E186E800E17127F0E1812255018D7
:102805001215C015F016C016F017C017F018C0182D
:10281500F04DEF15F02C50D8A413EF14F015EF146C
:10282500F01FEF14F0000E156E000E166E000E1759
:102835006E000E186E4DEF15F02D502CC01DF01EBC
:102845006A1D5E000E1E5A7F0E1D24266E000E1E8A
:1028550020276E15C021F016C022F017C023F018EE
:10286500C024F0000E156E000E166E000E176E00D9
:102875000E186E000E286E000E296E000E2A6E00D0
:102885000E2B6E2D6A7FEF14F02D50D8B44DEF143A
:10289500F04FEF14F066EF14F0D89021362236236E
:1028A500362436D89015361636173618362BAE5EC2
:1028B500EF14F060EF14F061EF14F01580D8902854
:1028C5003629362A362B361950215C1A5022581BC8
:1028D5005023581C502458D8A073EF14F075EF14EA
:1028E500F07EEF14F02B8C1950215E1A50225A1BE2
:1028F50050235A1C50245A2D2A190E2D6485EF1485
:10290500F087EF14F047EF14F02150221023102424
:1029150010D8B490EF14F092EF14F0AAEF14F02849
:1029250080AAEF14F0D89015361636173618362BC0
:10293500AE9FEF14F0A1EF14F0A2EF14F01580D8BC
:1029450090283629362A362B362606D8A02706178C
:10295500AEAFEF14F0B1EF14F095EF14F02D6A2B34
:10296500AEB7EF14F0B9EF14F0DDEF14F0FF0E2859
:10297500141D6EFF0E29141E6EFF0E2A141F6E7F86
:102985000E2B14206E1D501E101F102010D8B4CE13
:10299500EF14F0D0EF14F0D4EF14F0010E2D6EDD2E
:1029A500EF14F015A0D9EF14F0DBEF14F0DDEF1400
:1029B500F0D0EF14F02D50D8B4E3EF14F0E5EF1498
:1029C500F009EF15F0010E1526000E162217221834
:1029D5002218A0F0EF14F0F2EF14F009EF15F0153E
:1029E500C01DF016C01EF017C01FF018C020F02043
:1029F5003420321F321E321D321DC015F01EC01686
:102A0500F01FC017F020C018F0264A272A27BE1449
:102A1500EF15F0275008E12628D8A014EF15F01679
:102A2500EF15F021EF15F0000E276E2668000E1544
:102A35006E000E166E000E176E000E186E27BE2E57
:102A4500EF15F0275006E12604D8B02CEF15F02E2F
:102A5500EF15F03BEF15F0000E276E000E266E0009
:102A65000E156E000E166E000E176E000E186E25F2
:102A75006A26C02CF02CA042EF15F044EF15F04764
:102A8500EF15F0178E48EF15F0179ED8902C3018DB
:102A95006E01EF14F01200EF0E036E2F0E046E8020
:102AA5000E056E17EC0CF044504510D8A45DEF15DB
:102AB500F05FEF15F094EF15F00001BB510A0DF32F
:102AC500CF0BF0F4CF0CF0BC510B26000E0C22F00E
:102AD5000E0B24426EFD0E0C20436EBE510A0DF303
:102AE500CF0BF0F4CF0CF0BF510B26000E0C22F0EB
:102AF5000E0B24406EFD0E0C20416EC1510A0DF3E4
:102B0500CF0BF0F4CF0CF0C2510B26000E0C22F0C7
:102B15000E0B243E6EFD0E0C203F6E000E456E0121
:102B25000E446E020E5518D8A49BEF15F09DEF15B7
:102B3500F0ADEF15F0010E4824016E000E4920029C
:102B45006E000E046E030E036EE5EC0BF001C0483B
:102B5500F002C049F05504D8A4B3EF15F0B5EF1550
:102B6500F010EF16F048504910D8A4BCEF15F0BE90
:102B7500EF15F0D3EF15F0435007E1170E425CD87F
:102B8500B0C7EF15F0C9EF15F0CDEF15F0424A4388
:102B95002A10EF16F0000E436E000E426E10EF166F
:102BA500F048044910D8A4DAEF15F0DCEF15F0F180
:102BB500EF15F0415007E13B0E405CD8B0E5EF154D
:102BC500F0E7EF15F0EBEF15F0404A412A10EF164C
:102BD500F0000E416E000E406E10EF16F0020E482A
:102BE500184910D8A4F9EF15F0FBEF15F010EF1602
:102BF500F03F5007E13B0E3E5CD8B004EF16F006FF
:102C0500EF16F00AEF16F03E4A3F2A10EF16F000D5
:102C15000E3F6E000E3E6E10EF16F046500B6E47DF
:102C2500500C6E464A472A580E0B5C020E0C58D8BB
:102C3500B01FEF16F021EF16F08DEF16F0C00E095C
:102C45006E42C001F043C002F0000E046E0A0E038E
:102C55006E87EC0CF00150300F02EC0AF0C10E0942
:102C65006E42C001F043C002F0000E046E0A0E036E
:102C75006EE5EC0BF00150300F02EC0AF0C20E09C4
:102C85006E3A0E02EC0AF0C30E096E40C001F04127
:102C9500C002F0000E046E0A0E036E87EC0CF00104
:102CA50050300F02EC0AF0C40E096E40C001F0412D
:102CB500C002F0000E046E0A0E036EE5EC0BF00187
:102CC50050300F02EC0AF0C50E096E3A0E02EC0AFE
:102CD500F0C60E096E3EC001F03FC002F0000E04C2
:102CE5006E0A0E036E87EC0CF00150300F02EC0AF1
:102CF500F0C70E096E3EC001F03FC002F0000E04A1
:102D05006E0A0E036EE5EC0BF00150300F02EC0A73
:102D1500F0E4EF16F046500B6E47500C6E464A47EE
:102D25002AE80E0B5C030E0C58D8B09CEF16F09EEB
:102D3500EF16F0DEEF16F048504910D8A4A5EF16AF
:102D4500F0A7EF16F0B3EF16F0C00E096E200E02D5
:102D5500EC0AF0C10E096E200E02EC0AF0E4EF1643
:102D6500F048044910D8A4BAEF16F0BCEF16F0C825
:102D7500EF16F0C30E096E200E02EC0AF0C40E0920
:102D85006E200E02EC0AF0E4EF16F0020E48184928
:102D950010D8A4D0EF16F0D2EF16F0E4EF16F0C677
:102DA5000E096E200E02EC0AF0C70E096E200E0207
:102DB500EC0AF0E4EF16F0000E476E000E466EE4E6
:102DC500EF16F00B0E5518D8A4EBEF16F0EDEF1635
:102DD500F07AEF17F042C001F043C002F0000E0494
:102DE5006E0A0E036EE5EC0BF001C00BF002C00C91
:102DF500F042C001F043C002F0000E046E0A0E035B
:102E05006E87EC0CF00138F00B0B10086E020E1AF1
:102E1500EC0AF040C001F041C002F0000E046E0A59
:102E25000E036EE5EC0BF001C00BF002C00CF04098
:102E3500C001F041C002F0000E046E0A0E036E8759
:102E4500EC0CF00138F00B0B10086E010E1AEC0AB1
:102E5500F03EC001F03FC002F0000E046E0A0E0302
:102E65006EE5EC0BF001C00BF002C00CF03EC001AA
:102E7500F03FC002F0000E046E0A0E036E87EC0CE4
:102E8500F00138F00B0B10086E000E1AEC0AF0007A
:102E95000E456E000E446E000E016E010E86EC0AA4
:102EA500F0D00E036E2F0E046E830E056E17EC0C1C
:102EB500F0C50E036E2F0E046EC00E056E17EC0CDA
:102EC500F04E6A4F6A506A150E0C6E4B0E0B6EBEB5
:102ED5000EE82EFED70B2EFCD70C2EFAD700D0000D
:102EE5000E016E010E86EC0AF0576AAEEF17F00C74
:102EF5000E5518D8A481EF17F083EF17F0AEEF1732
:102F0500F0000E016E010E86EC0AF07F0E036E2FA7
:102F15000E046E800E056E17EC0CF0C50E036E2FB9
:102F25000E046EC00E056E17EC0CF04E6A4F6A501B
:102F35006A150E0C6E4B0E0B6EBE0EE82EFED70BF1
:102F45002EFCD70C2EFAD700D0000E016E010E868E
:102F5500EC0AF0010E576E12000054494D45202031
:102F650020202045562020535020004C6F672069B3
:102F75007320456D70747921210054494D45204ECB
:102F85004F542053415645440054494D4520202077
:102F950020204556205350004C6F6720446F776EB4
:102FA5006C6F6164656400537563636573736675FF
:102FB5006C6C79004C6F6720436C656172656400C9
:102FC50065786974696E672E2E2E0054494D45202B
:102FD500534156454400697320456D70747921004D
:102FE5004576656E74204C6F67004848204D4D202E
:0C2FF5005353000A0D0000B5EF0BF00173
:020000040020DA
:08000000FFFFFFFFFFFFFFFF00
:020000040030CA
:0E000000FF071F1FFF8285FF0FC00FE00F409C
:00000001FF
